:020000040000FA
:1000000002001700000080FB120026B90003020066
:100010001112015E12000375D0007581BF751000CA
:1000200075110F0200087901222510C582C0E0E594
:100030001134FFC583C0E0E510C3958224F910AFE9
:10004000088583118582108008858311858210D2EE
:10005000AFCEF0A3E520F0A37808E608F0A3DEFA1F
:10006000EFF0A3E58124FBF8E608F0A3E608F0A38F
:100070000808E608F0A3E608F0A315811581D0E092
:10008000FED0E0F815811581E8C0E0EEC0E02285E1
:100090001183851082E0A3FEE0A3F5207808E0A399
:1000A000F608DFFAE0A3FFE0A3C0E0E0A3C0E0E0D1
:1000B000A3C0E0E0A3C0E010AF08858210858311E3
:1000C0008008858210858311D2AFD083D08222C070
:1000D00082C08390618E740FF0E990618FF0EA9096
:1000E0006190F09061AE7400F09061B27415F0D040
:1000F00083D0822275BE08E59E5480F5C6E59E54E5
:1001000040F8E5C654408009E59E5440F8E5C654E1
:10011000406870F422E942C67438C0E0E59EF5F00C
:10012000D0E084E5F0A8F07438C0E0E5C6F5F0D082
:10013000E084E5F0801C7438C0E0E59EF5F0D0E086
:1001400084E5F0A8F07438C0E0E5C6F5F0D0E084AE
:10015000E5F06870E1EA42E422C2AFD2AF221200B9
:10016000F47AF579331200CF9061E574FFF07A806C
:1001700079381201151201597A0079011201818032
:10018000F774F712002989088A097F007E0012019E
:100190005943E401800FE5AF542060FAC2AF53AF7A
:1001A000DF0F120159EFC39508501875E1E9E5AF6B
:1001B000542080E6E5AF542060FAC2AF53AFDF0EA3
:1001C000120159EEC39509500975E1EFE5AF5420CE
:0701D00080E67F0202008FB0
:0400000500000017E0
:00000001FF
