:020000040000FA
:030000000200C338
:0300330002011AAD
:03004B000201119E
:03007B0002011966
:1000830002011000000080FB1200CCB90003020043
:10009300BD900001AA82AB839000CF7809790180DB
:1000A30015E493A3AC82AD838A828B83F0A3AA82E7
:1000B300AB838C828D83D8E9D9E712014112008684
:1000C30075D0007581BF02008B7901220100000009
:1000D30040420F00C008C3E096F50808A3E096422B
:1000E3000808A3E096420808A3E0964208A2D26556
:1000F300D033E5087001D3D00822E026F608A3E048
:1001030036F608A3E036F608A3E036F62232C2AF8D
:1001130053AFDFD2AF32323275BE08E59E5480F55D
:10012300C6E59E5440F8E5C654408009E59E544018
:10013300F8E5C654406870F422C2AFD2AF22120170
:100143001B5389EFC2C5538CFE43AB10D2BD1201C2
:100153003CC2AF43FE80C297E589A2E450FAD2972E
:10016300750800750900750A00750B00800890007A
:100173000178081200FD90000578081200D750EEB0
:04018300C29780FEA1
:04000005000000C334
:00000001FF
