:020000040000FA
:030000000200AA51
:030033000200F3D5
:03004B000200EAC6
:03007B000200F28E
:100083000200E900000080FB1200D4B90003020063
:100093009475826B75830174001200B67582867540
:1000A300830074001200B675D0007581BF759F0080
:1000B30002008BC09FF59FE473D09F22D083D08230
:1000C300C09FE493C0E0740193C0E0740293F59F72
:1000D300227901221200BFF400001200BF1A0100AE
:1000E3001200BF64010032C2AF53AFDFD2AF32326E
:1000F3003275BE08E59E5480F5C6E59E5440F8E58A
:10010300C65440F9E968600CE59E5440F8E5C654CE
:1001130040F980F00200BCE942C67438C0E0E59EB5
:10012300F5F0D0E084E5F0A8F07438C0E0E5C6F55A
:10013300F0D0E084E5F0ABF0EB6860207438C0E009
:10014300E59EF5F0D0E084E5F0A8F07438C0E0E572
:10015300C6F5F0D0E084E5F0ABF080DC8AE4020081
:10016300BCC2AFD2AF0200BC750B01750A0012000E
:10017300D77A8079381200DD43FE80C2971200E3FC
:1001830043E4017E007F00C3EE9403EF9400A2D208
:1001930065D0335022E5AF5420F50CE50C7008E52B
:1001A300AF5420F50C80F453AFDF1200E3EE2401CB
:1001B300FEEF3400FF80D053E4FC75E20053AFDF61
:1001C3001200E3750A00850A08750900E50BA80B00
:1001D3007900E875F002A4C8AAF075F000A42AFA21
:1001E30075F002E9A42AF9C3E50898E50999A2D2B2
:1001F30065D033502243E401639080E5AF5420F58A
:100203000CE5AFA2E550FA53E4FC75E20053AFDF0F
:100213001200E3050A80AF7405650B7005750B01C9
:100223008002050B53E4FC75E2001200E302018334
:04000005000000AA4D
:00000001FF
