:020000040000FA
:0300000002009A61
:030033000200B018
:03004B000200A709
:03007B000200AFD1
:100083000200A600000080FB1200A3B900030200D7
:100093009412011512008675D0007581BF02008B82
:1000A30079012232C2AF53AFDFD2AF32323275BEE3
:1000B30008E59E5480F5C6E59E5440F8E5C65440D5
:1000C3008009E59E5440F8E5C654406870F422E97F
:1000D30042C67438C0E0E59EF5F0D0E084E5F0A8B0
:1000E300F07438C0E0E5C6F5F0D0E084E5F0801C9C
:1000F3007438C0E0E59EF5F0D0E084E5F0A8F07434
:1001030038C0E0E5C6F5F0D0E084E5F06870E18A38
:10011300E4221200B1C2AF7A0179001200D275DC79
:100123000F75DD0075DAFF75DBFF43E62043E60458
:0E01330043FF8043F30843FD0843E40380FECE
:040000050000009A5D
:00000001FF
