:020000040000FA
:030000000200AD4E
:030033000200F3D5
:03004B000200EAC6
:03007B000200F28E
:100083000200E900000080FB1200B6B90003020081
:10009300A778109000B97A08BA00028007E493A306
:1000A300F608DAF91203ED12008675D0007581BFE8
:1000B30002008B79012201000000A0860100C3E742
:1000C300960809E7960809E7960809E796A2D26514
:1000D300D03322E627F60809E637F60809E637F6AD
:1000E3000809E637F62232C2AF53AFDFD2AF32325E
:1000F300327580FF7590FD75FD8075FE12906180ED
:10010300740CF09061817478F09061827407F090C0
:1001130061837400F09061847400F09061857400D1
:10012300F09061867400F09061877400F0906188AC
:100133007400F0906189740CF090618A7400F090FF
:10014300618B7400F090618C7400F090618D740089
:10015300F090618E740FF090618F740BF09061904A
:1001630074F5F09061917469F09061927400F0906D
:1001730061937400F09061947440F0906195740100
:10018300F090619674F8F0906197741AF09061980A
:100193007480F09061997400F090619A7400F0900B
:1001A300619B7400F090619C7400F090619D7400F9
:1001B300F090619E7400F090619F7400F09061A1D3
:1001C3007400F09061A27400F09061A37400F09049
:1001D30061A47400F09061A57400F09061A77401AC
:1001E300F09061A87485F09061A97414F09061AAED
:1001F30074EBF09061AB743FF09061AC745AF09083
:1002030061AD7424F09061AE7400F09061AF74132B
:10021300F09061B0742AF09061B1745FF09061B2B4
:100223007415F09061B374FEF09061B4742EF09085
:1002330061B57410F09061B6740EF09061B77403F9
:10024300F09061B87475F09061B97408F09061BA78
:100253007400F09061BB7400F09061BC7428F0905E
:1002630061BD7400F09061BE7400F09061BF7400D2
:10027300F09061EB7400F09061EC7400F09061ED2C
:100283007400F09061FA7409F09062437400F09086
:1002930062447400F09062457400F090624674000A
:1002A300F09062477400F09062487400F0906249E5
:1002B3007400F090624A7400F02275BE08E59E5403
:1002C30080F5C6E59E5440F8E5C654408009E59E96
:1002D3005440F8E5C654406870F4220581E942C6EB
:1002E3007438C0E0E59EF5F0D0E084E5F0ABF0E5CE
:1002F30081A8817438C0E0E5C6F5F0D0E084E5F06C
:10030300F680217438C0E0E59EF5F0D0E084E5F096
:10031300ABF0E581A8817438C0E0E5C6F5F0D0E024
:1003230084E5F0F6E581A881E66B70D78AE4158150
:1003330022C2AFD2AF22C008C009C00AC00BE581F8
:10034300240AF5817A007B0080190079107808125D
:1003530000D6781479081200C140EFEA2401FAEBC1
:100363003400FBC3EA940AEB9400A2D265D0335065
:1003730027906199E0A2E050F8906198E0C0E0EA2C
:10038300F8E58124F628F8D0E0F675080075090031
:10039300750A00750B0080BAE58124F7F8E6F97A4F
:1003A300017B008024EAF8E58124F728F8E6C39965
:1003B300A2D265D033500AEAF8E58124F728F8E69B
:1003C300F9EA2401FAEB3400FBC3EA940AEB940044
:1003D300A2D265D03340CE92F0E58124F6F581A216
:1003E300F0D00BD00AD009D008221202BD1200F4BB
:1003F3009061E574FFF07A8079381202DE120334DB
:1004030075E1E353AFDFD2DED2B9D2AF120339E9DC
:10041300F83395E0F9E82401906196F0906197E054
:100423004418F0906197E054F8F0E5FEF875FEFF8C
:1004330074008002D296906199E0A2E050F875E1D1
:0D044300EB906193E0540860EBC29680E9F5
:04000005000000AD4A
:00000001FF
