:020000040000FA
:0300000002009A61
:03004B000200A709
:100083000200A600000080FB1200A3B900030200D7
:100093009412012112008675D0007581BF02008B76
:1000A30079012232C2AF53AFDFD2AF3275BE08E55A
:1000B3009E5480F5C6E59E5440F8E5C65440800939
:1000C300E59E5440F8E5C654406870F422E942C600
:1000D3007438C0E0E59EF5F0D0E084E5F0A8F07454
:1000E30038C0E0E5C6F5F0D0E084E5F0801C743854
:1000F300C0E0E59EF5F0D0E084E5F0A8F07438C0E8
:10010300E0E5C6F5F0D0E084E5F06870E18AE4222A
:1001130075C0FD53AFFE75AFDFD2B9D2AF22750AFA
:10012300017E001200AF7A8079201200D043FE02D4
:100133005390FC120113800B050A53E4FC75E20093
:1001430012011343E4017E007F008011E5AF5420C8
:1001530060FA120113EE2401FEEF3400FFC3EE94A4
:1001630005EF9400A2D265D0335006E5AF5420804A
:10017300DF53E4FC75E2001201137E00801A43E4AE
:1001830001639003E5AF5420E5AFA2E550FA53E4D1
:10019300FC75E2001201130E8E08750900E50AA82A
:1001A3000A7900E875F002A4C8AAF075F000A42A41
:1001B300FA75F002E9A42AF9C3E50898E50999A2BA
:1001C300D265D03340B87405650A600302013B75FC
:0501D3000A0102013DDC
:040000050000009A5D
:00000001FF
